:400000000080002011000000DD030000DD03000008B5044B1A6803F53F5302331A6000F0E5F900BFFA46004010B5054C237833B9044B13B10448AFF300800123237010BDD9
:400040004081FF1F0000000080060000084B10B51BB108490848AFF300800848036803B910BD074B002BFBD0BDE81040184700BF000000004481FF1F80060000C880FF1F06
:40008000000000000122014B1A7070475C81FF1F0023184606E0054A52F823209A401043C0B20133032BF6DD704700BFCC80FF1F10B501F00F0141EA0010C4B200F07AFAC3
:4000C00010F0040FFAD1204600F06AFA00F072FA10F0010FFAD010BD10B562B600F052FA184800F00FFA0024174B1B78DBB2012B0AD108216020FFF7DBFF002000F0D0F9F4
:40010000002000F0D9F9EFE7FFF7C2FF01463020FFF7CEFF0D4B1B78DBB2032B01D10C4B1B780A4B1B78DBB2062B02D1084B1C78E4B2042CD8D1002000F0B2F9002000F0FA
:40014000BBF9D1E7850000005C81FF1F5F81FF1F6181FF1FFEE700BFF0B40022174611E050F82760F3B226F0FF0608E001EB420511F812406D78A5550132013BDBB2002BD2
:40018000F4D101371E2FEBD9F0BC7047064B1B78DBB203F00701054A11701B09013213704422034B1A707047CF0100496E5800407658004008B50A46002100F058FA08BD61
:4001C00038B517222D4B1A8018232D4A13704FF41C71023211800232137043F69722294B1A80192502331D7047F22F5202331A8002331D70022203F272231A7008224FF05A
:4002000040231A70032103F5007319701E4B1B78DBB21E490B701E4B1A8041F25122023B1A8000240CE01B4B1B7803F0010343EA440404F003044FF4F07000F0D1F9013DC3
:400240000DB1032CEFD115B90320FFF783FF124B4FF480721A8007221A7000220F490A704820023108701A700222033B1A700C4A137843F00F03137038BD00BF80400040AF
:40028000824000408840004008010049A146004022420040254200400440004006400040A243004008B500F0D7F908BD38B572B6344A137843F00403137000240CE0324D95
:4002C000630019194A0011462A44084691882858FFF770FF0134E4B2062CF0D92B494FF09040FFF739FF2022294B1A70294A137843F0020313701032137843F00203137016
:40030000254C237843F040032370A2F58632513A137843F010031370082220492048FFF7C1FF08221F492048FFF7BCFF0A221F491F48FFF7B7FF08221E491F48FFF7B2FFD8
:400340000A221E491E48FFF7ADFF08221D491E48FFF7A8FF1D4A137843F0080313701C4D61232B70FFF72CFF81232B700122194B1A70FFF70BFF0E2221461748FFF792FF26
:4003800038BD00BFE8460040840600007C0000481260004003500140A0430040EC04004802510040F4040048C2510040FC040048F0510040080500481251004010050048E8
:4003C000205100401C05004832510040224300400048004004000840B043004008B500F00FF903680C2B00D1FEE7FEE708B5104E104D16E029686B68AC68002204E051F84D
:40040000040B43F8040B0432A242F8D1E868002203E0002143F8041B04328242F9D11035013E002EE6D100F0F1F8FFF755FEFEE701000000D406000008B5104A104B1A60B5
:40044000104A136843F40073136000230AE0032B03D80D4A52F8231000E00C490C4A42F8231001332F2BF2D90A4B1A780A4B1A70074A0A4B1A60FFF719FF08BD0004FA0593
:400480000CED00E014ED00E000000000DD0300000080FF1FBC760040C080FF1F08ED00E0044A137803F0FD03400000F0020018431070704730510040044A137803F0FB0344
:4004C000800000F0040018431070704730510040014B1B689864704708ED00E04001C0B2014B1870704700BF02E400E00422014B1A60704700E100E00422014B1A60704714
:4005000080E100E010B50446FFF7F6FF2046FFF7DFFF0720FFF7E2FFFFF7E8FF10BD00BF7222084B1A702022A3F201131A7006229F331A70472210331A70002251331A700F
:40054000704700BF8A65004010B500F051F804460B4A137843F020031370A2F20112137843F01003137002F58072137843F01003137000F025F8204600F03EF810BD00BF78
:400580009A65004008B5054B1B7823B9FFF7C8FF0122024B1A70FFF7D7FF08BD5D81FF1F024B1B780BB1024B187070475D81FF1F4A650040014B1878704700BF69650040C9
:4005C000054A137843F0020313701032137843F002031370704700BFA2430040000000000230800803D000BF01380046FCD17047EFF3108072B6704780F31088704700BF22
:40060000014B1868704700BF3C81FF1F0E4B70B51E460E4C0025E41AA410A54204D056F8253098470135F8E700F042F8084B094C1E46E41AA4100025A54204D056F82530CD
:4006400098470135F8E770BDBC060000BC060000BC060000C406000010B5431E0A44914204D011F8014B03F8014FF8E710BD03460244934202D003F8011BFAE770470000FD
:4006800000000000004F0040180040510040300000000140001000140140000800400140000A004C014000020050014020004300F8B500BFF8BC08BC9E4670474D0000000A
:4006C00039040000F8B500BFF8BC08BC9E46704729000000E8060000C880FF1F7800000028000000000000000000000001000000010000000100000001000000000000001D
:4007000000000000000000000000000000000000000000000000000000000000AE060000000000000000000000000000000000000000000000000000000000000000000005
:4007400000000000000000000000000000000000000000000000000000000000DC80FF1F0000000000000000000000000000000000000000000000000000000000000000FF
:400780000000000000000000000000000000000000000000000000000000000000000000000000000000000000000000000000000000000000000000000000000000000039
:4007C00000000000000000000000000000000000000000000000000000000000000000000000000000000000000000000000000000000000000000000000000000000000F9
:4008000000000000000000000000000000000000000000000000000000000000000000000000000000000000000000000000000000000000000000000000000000000000B8
:400840000000000000000000000000000000000000000000000000000000000000000000000000000000000000000000000000000000000000000000000000000000000078
:020000040003F7
:0200000480007A
:40000000034F00400552004001640040026500400101014004020140010301400205014002070140450801403D090140090B0140010D0140010F0140011701406F180140BF
:400040004A190140461A0140451B014006400140024101400A4201400B430140084501400B46014006470140024801400E4C0140054D014004500140015101400A930D300A
:40008000164B09800C0410A0118078808938890F8A72E202B980BF40D904DF012180A980E440E201E603060807040A010D080E40130114051501161A17021A041E40200373
:4000C000220C2A302E02301031023220330134403504360F37083A0A3E503F40580459045B045C235F0186018A088C028D048E049208930395179606972898019D08A10EE8
:40010000A201A331A520A801A910AE06B008B101B202B302B404B53CB601B880BE15BF15D418D604D804D904DB04DC01DD10DF010020022003030504060509080A840D2823
:400140000E0110021101120817511A111B211D991F022090211026812728280429053082310833403601370838803C403D085A025F90611063426802698081C083208404EE
:400180008520868087409410952096109B10A080A440AA10C0E7C2EEC4DBCA07CCCBCE58D631D80DE208E40CE8018C108F109520A080A440AC40B080E440E80295208510CA
:4001C000EA02001002400313041408DC0A220B0C0E031410152C16AC17031F082409253126D02706280C29312A712B0E2E20301F32E03330350F39083A083B203F04400232
:40020000460449FF4A074BFF4C404D204EF04F055008580459045A045C115D015F01604061A8624063208003821484338544860C87318A088D018F0E9433956796049967A1
:40024000A040A215A40AA522A634A7D1B010B107B260B360B40FB580B718B808BA20BE01BF40C024C106C205C401C50CC7E0C821C9FFCAFFCBFFCC62CDA0CEF0CF41D00C2C
:40028000D401D804D904DA04DB04DC11DD11DF01E640E702E910EA30EB10ED10EE10EF12001002800320044006500748080409080F20108013081404162218101A401B306D
:4002C0001C401D081F08208121152350272828202F28314032403314374839083B403C103E223F024005420443024720481049404A084C804F025201564059145A418104CF
:40030000850487409440950196869E01A410A504A628A840AA04AF20B108B392B504C0FEC224C4ECCA62CC56CEAAD02DD20CD60FE204EA01001F01C0022004330508060CFE
:40034000083F0B040C030D80122313E3140C1518180119441C401D102008211C23E1240425FF280229E72B182C1C2D3C2E232FC2301031C03240340F351F362C37383AA00A
:400380003B283E054021410346BC47E0482C49FF4AFF4BFF4EF04F44500C56025710580459045A045B045C115D115F0166C06A406B0284018801AC01B001D804DC01DF019B
:4003C00000840101020C038007140820090A0A010B02120113161540180419141A401B801D021F022269230829902A042B80308031083210330239223B8442024328529016
:4004000053015A4069406B147080710873068D808E018F0891229220939094049501968398209A029D049E109F14A040A328A6A8A702A910AA80B420B610C06FC20FC48FFA
:40044000CA0FCC0FCE0FD00ED6083220330137208720CC70E2409F01A6201F025F028F029B029F01A620AB02C620D680EE8060106B808010838086209F01A620D840DC206C
:40048000E280E6C00B80521065406608C208D404D601D801078056808E089D409E08AE10B340C004D402E008EE018304854086019B809D40AA80AF01EA4000400A010F2001
:4004C000630880809601A304A710AB80B710C002C206D802EA081080A480B440C408EA02000E0C0E10021C02003F000000FFFF000000000040400000000000000000A0003F
:400500000000800000000000649B9B0080000000200010ACAC00A40000000000000707000000000000000000000000000000000000000000000000000000000000000000E7
:40054000000000000000000000000000000000000000000000000000000000000000000000000000000000000000000000000000000000000000000000000000000000007B
:40058000000000000000000000000000000000000000000000000000000000000000000000000000000000000000000000000000000000000000000000000000000000003B
:4005C00000000000000000000000000000000000000000000000000000000000000000000000000000000000000000000000000000000000000000000000000000000000FB
:4006000000000000000000000000000000000000000000000000000000000000000000000000000000000000000000000000000000000000000000000000000000000000BA
:0200000490006A
:0400000000004005B7
:0200000490105A
:04000000BC90ACAF55
:0200000490303A
:02000000D17DB0
:0200000490402A
:4000000000000000000000000000000000000000000000000000000000000000000000000000000000000000000000000000000000000000000000000000000000000000C0
:400040000000000000000000000000000000000000000000000000000000000000000000000000000000000000000000000000000000000000000000000000000000000080
:400080000000000000000000000000000000000000000000000000000000000000000000000000000000000000000000000000000000000000000000000000000000000040
:4000C0000000000000000000000000000000000000000000000000000000000000000000000000000000000000000000000000000000000000000000000000000000000000
:0200000490501A
:0C00000000012E16106900012E19E1E627
:00000001FF