:020000020000FC
:040000000C944B0011
:100010000C942C000091680012E0012B0093680002
:1000200007E000936C00089542E04093C00048E26E
:100030004093C10046E04093C20046E04093C400B4
:1000400040E04093C500089544E040938100089546
:1000500040E0409381000895409101014830B9F497
:100060004930A9F446E04F70493029F0423039F068
:10007000443049F0189549E040930101FBCF42E03C
:1000800040930101F7CF44E040930101F3CF48E0F2
:1000900040930101EFCF08E00EBF0FEF0DBF0E94AC
:1000A0000A0009E00093010100EC04B97894009182
:1000B0000101093039F0083029F0023039F00430FC
:1000C000B9F0F5CF05B10F7305B9F1CF009100017B
:1000D000102F1071103161F0102F1270123041F09A
:1000E000102F1170113009F0E2CF05B12B9B05B92B
:0400F0000000DDCF60
:00000001FF
