:020000020000FC
:040000000C948500D7
:040010000C94450007
:100048000C9467000091680012E0012B009368008F
:1000580007E000936C00089548E94093C10046E02A
:100068004093C20046E04093C40040E04093C5007E
:10007800089544E040938100089540E04093810052
:10008800089546B1403071F040910201483059F06E
:100098004930A9F446B14F70413029F0423039F067
:1000A800443049F0189549E040930201FBCF42E003
:1000B80040930201F7CF44E040930201F3CF48E0B8
:1000C80040930201EFCF4091C00045FFFCCF409123
:1000D800C600542F407F5F70403309F01895609137
:1000E8000101607F650F60930101F8CFF89440919A
:1000F800C00045FFFCCF409100014093C6007894B2
:10010800089508E00EBF0FEF0DBF0E9426000E9461
:10011800300009E00093020100E304B90CEF0AB9CA
:1001280000E00093010178940091020104B9009362
:1001380000010E947A0000910201093039F008306C
:1001480029F0023039F0043049F1EECF05B10F73D0
:1001580005B9EACF00910101102F10781038B1F0DD
:10016800102F1270123049F0102F1170113009F051
:10017800DBCF05B1006105B9D7CF05B100E305B9FB
:100188000E943D0000E840930101CECF1091850008
:10019800183951F605B100E105B9C6CF0091010142
:1001A800102F1870183001F605B100E005B9BCCF62
:00000001FF
