:020000020000FC
:040000000C948500D7
:040010000C94450007
:100048000C9467000091680012E0012B009368008F
:1000580007E000936C00089548E94093C10046E02A
:100068004093C2004CE04093C40040E04093C50078
:10007800089544E040938100089540E04093810052
:10008800089546B1403071F040910201483059F06E
:100098004930A9F446B14F70413029F0423039F067
:1000A800443049F0189549E040930201FBCF42E003
:1000B80040930201F7CF44E040930201F3CF48E0B8
:1000C80040930201EFCF4091C00045FFFCCF409123
:1000D800C600542F407F5F70403309F01895609137
:1000E8000101607F650F60930101F8CFF89440919A
:1000F800C00045FFFCCF409100014093C6007894B2
:10010800089508E00EBF0FEF0DBF0E9426000E9461
:10011800300009E00093020100E304B90CEF0AB9CA
:1001280000E000930101789400910201093039F050
:10013800083029F0023039F0043049F1F5CF05B123
:100148000F7305B9F1CF00910101102F1078103805
:10015800B1F0102F1270123049F0102F11701130B9
:1001680009F0E2CF05B1006105B9DECF05B100E3C2
:1001780005B90E943D0040E840930101D5CF109198
:100188008500183988F205B100E105B9CDCF009195
:0E0198000101102F187005B100E005B9C5CFA8
:00000001FF
