:020000020000FC
:040000000C9432002A
:100010000C9414000091680012E0012B009368001A
:1000200007E000936C000895409101014830B1F45D
:100030004930A1F446E0493029F0423039F04430EB
:1000400049F0189549E040930101FBCF42E040930D
:100050000101F7CF44E040930101F3CF48E0409322
:100060000101EFCF08E00EBF0FEF0DBF0E940A00A5
:1000700009E00093010100EC04B9789400910101BA
:10008000093039F0083029F0023039F0043039F005
:10009000F5CF03E00F7305B9F1CF0000EFCF0000FB
:0200A000EDCFA2
:00000001FF
