:020000020000FC
:040000000C944E000E
:100010000C942C000091680012E0012B0093680002
:1000200007E000936C00089542E04093C00048E26E
:100030004093C10046E04093C20046E04093C400B4
:1000400040E04093C500089544E040938100089546
:1000500040E040938100089546B1403071F04091F6
:100060000101483059F04930A9F446B14F70413090
:1000700029F0423039F0443049F0189549E0409376
:100080000101FBCF42E040930101F7CF44E04093F0
:100090000101F3CF48E040930101EFCF08E00EBF2C
:1000A0000FEF0DBF0E940A0009E00093010100E379
:1000B00004B90FEF0AB901E000930001789403B18D
:1000C000077000930001009101010BB9093039F06C
:1000D000083029F0023039F0043049F1F0CF05B191
:1000E0000F7305B9ECCF00910001102F1078103874
:1000F000B1F0102F1270123049F0102F1170113022
:1001000009F0DDCF05B1006105B9D9CF05B100E334
:1001100005B90E94240000E840930001D0CF10915F
:100120008500183961F605B100E105B9C8CF009125
:100130000001102F1870183011F605B100E005B954
:02014000BECF30
:00000001FF
