:020000020000FC
:040000000C944E000E
:100010000C942C000091680012E0012B0093680002
:1000200007E000936C00089542E04093C00048E26E
:100030004093C10046E04093C20046E04093C400B4
:1000400040E04093C500089544E040938100089546
:1000500040E040938100089546B1403071F04091F6
:100060000101483059F04930A9F446B14F70413090
:1000700029F0423039F0443049F0189549E0409376
:100080000101FBCF42E040930101F7CF44E04093F0
:100090000101F3CF48E040930101EFCF08E00EBF2C
:1000A0000FEF0DBF0E940A0009E00093010100E379
:1000B00004B901E000930001789403B10770009344
:1000C000000100910101093039F0083029F00230B7
:1000D00039F0043011F1F1CF05B10F7305B9EDCF4F
:1000E00000910001102F10711031B1F0102F12701B
:1000F000123049F0102F1170113009F0DECF05B128
:10010000006105B9DACF05B100E305B90E9424000A
:0E01100000E840930001D1CFD0CF0000CECF49
:00000001FF
